{
  "contractName": "Employee",
  "abi": [
    {
      "constant": true,
      "inputs": [],
      "name": "dateTimeAddr",
      "outputs": [
        {
          "internalType": "address",
          "name": "",
          "type": "address"
        }
      ],
      "payable": false,
      "stateMutability": "view",
      "type": "function"
    },
    {
      "constant": false,
      "inputs": [
        {
          "components": [
            {
              "internalType": "string",
              "name": "userId",
              "type": "string"
            },
            {
              "internalType": "string",
              "name": "name1",
              "type": "string"
            },
            {
              "internalType": "string",
              "name": "name2",
              "type": "string"
            },
            {
              "internalType": "string",
              "name": "homeAddress",
              "type": "string"
            },
            {
              "internalType": "string",
              "name": "contactNumber",
              "type": "string"
            },
            {
              "internalType": "string",
              "name": "email",
              "type": "string"
            },
            {
              "internalType": "string",
              "name": "nationality",
              "type": "string"
            },
            {
              "internalType": "string",
              "name": "residentStatus",
              "type": "string"
            }
          ],
          "internalType": "struct Employee.PersonalInfo",
          "name": "_personalInfo",
          "type": "tuple"
        }
      ],
      "name": "_fillPersonalInfo",
      "outputs": [],
      "payable": false,
      "stateMutability": "nonpayable",
      "type": "function"
    },
    {
      "constant": false,
      "inputs": [
        {
          "internalType": "uint16",
          "name": "_startYear",
          "type": "uint16"
        },
        {
          "internalType": "string",
          "name": "_employer",
          "type": "string"
        }
      ],
      "name": "_fillEmploymentHistory",
      "outputs": [],
      "payable": false,
      "stateMutability": "nonpayable",
      "type": "function"
    },
    {
      "constant": false,
      "inputs": [
        {
          "internalType": "uint16",
          "name": "_startYear",
          "type": "uint16"
        },
        {
          "internalType": "string",
          "name": "_academic",
          "type": "string"
        }
      ],
      "name": "_fillAcademicHistory",
      "outputs": [],
      "payable": false,
      "stateMutability": "nonpayable",
      "type": "function"
    },
    {
      "constant": false,
      "inputs": [
        {
          "internalType": "uint16",
          "name": "_expectedSalary",
          "type": "uint16"
        }
      ],
      "name": "_setExpectedSalary",
      "outputs": [],
      "payable": false,
      "stateMutability": "nonpayable",
      "type": "function"
    },
    {
      "constant": false,
      "inputs": [
        {
          "internalType": "string",
          "name": "_userId",
          "type": "string"
        },
        {
          "internalType": "string",
          "name": "_newHomeAddress",
          "type": "string"
        }
      ],
      "name": "_updateHomeAddress",
      "outputs": [],
      "payable": false,
      "stateMutability": "nonpayable",
      "type": "function"
    },
    {
      "constant": false,
      "inputs": [
        {
          "internalType": "string",
          "name": "_userId",
          "type": "string"
        },
        {
          "internalType": "string",
          "name": "_newContactNumber",
          "type": "string"
        }
      ],
      "name": "_updateContactNumber",
      "outputs": [],
      "payable": false,
      "stateMutability": "nonpayable",
      "type": "function"
    },
    {
      "constant": false,
      "inputs": [
        {
          "internalType": "string",
          "name": "_userId",
          "type": "string"
        },
        {
          "internalType": "string",
          "name": "_employer",
          "type": "string"
        },
        {
          "internalType": "uint16",
          "name": "_monthlyAllowance",
          "type": "uint16"
        }
      ],
      "name": "_jobOffer",
      "outputs": [
        {
          "internalType": "bool",
          "name": "",
          "type": "bool"
        }
      ],
      "payable": false,
      "stateMutability": "nonpayable",
      "type": "function"
    }
  ],
  "bytecode": "0x6080604052738fc065565e3e44aef229f1d06aac009d6a524e826000806101000a81548173ffffffffffffffffffffffffffffffffffffffff021916908373ffffffffffffffffffffffffffffffffffffffff1602179055506000809054906101000a900473ffffffffffffffffffffffffffffffffffffffff16600160006101000a81548173ffffffffffffffffffffffffffffffffffffffff021916908373ffffffffffffffffffffffffffffffffffffffff1602179055503480156100c657600080fd5b50610ce7806100d66000396000f3fe608060405234801561001057600080fd5b50600436106100885760003560e01c806359cf175e1161005b57806359cf175e146101115780637352d0841461012d578063d2c5ce3114610149578063fe9c64ad1461016757610088565b8063214d05391461008d5780632a03babe146100a95780634d388e61146100d95780635304e8c2146100f5575b600080fd5b6100a760048036036100a291908101906108c2565b610183565b005b6100c360048036036100be919081019061092e565b61023c565b6040516100d09190610b24565b60405180910390f35b6100f360048036036100ee91908101906108c2565b61034b565b005b61010f600480360361010a91908101906109ad565b610404565b005b61012b600480360361012691908101906109ee565b61050f565b005b61014760048036036101429190810190610a40565b610532565b005b610151610569565b60405161015e9190610b09565b60405180910390f35b610181600480360361017c9190810190610a40565b61058e565b005b6002826040516101939190610af2565b908152602001604051809103902060009054906101000a900473ffffffffffffffffffffffffffffffffffffffff1673ffffffffffffffffffffffffffffffffffffffff163373ffffffffffffffffffffffffffffffffffffffff16146101f957600080fd5b600060038360405161020b9190610af2565b90815260200160405180910390209050818160000160040190805190602001906102369291906105c5565b50505050565b60008060038560405161024f9190610af2565b908152602001604051809103902090508261ffff1681600a0160009054906101000a900461ffff1661ffff161161033e57610334600160009054906101000a900473ffffffffffffffffffffffffffffffffffffffff1673ffffffffffffffffffffffffffffffffffffffff166392d66313426040518263ffffffff1660e01b81526004016102de9190610b3f565b60206040518083038186803b1580156102f657600080fd5b505afa15801561030a573d6000803e3d6000fd5b505050506040513d601f19601f8201168201806040525061032e9190810190610a17565b85610532565b6001915050610344565b60009150505b9392505050565b60028260405161035b9190610af2565b908152602001604051809103902060009054906101000a900473ffffffffffffffffffffffffffffffffffffffff1673ffffffffffffffffffffffffffffffffffffffff163373ffffffffffffffffffffffffffffffffffffffff16146103c157600080fd5b60006003836040516103d39190610af2565b90815260200160405180910390209050818160000160030190805190602001906103fe9291906105c5565b50505050565b8060200151600460000160010190805190602001906104249291906105c5565b508060400151600460000160020190805190602001906104459291906105c5565b508060600151600460000160030190805190602001906104669291906105c5565b508060800151600460000160040190805190602001906104879291906105c5565b508060a00151600460000160050190805190602001906104a89291906105c5565b508060a00151600460000160000190805190602001906104c99291906105c5565b508060c00151600460000160060190805190602001906104ea9291906105c5565b508060e001516004600001600701908051906020019061050b9291906105c5565b5050565b806004600a0160006101000a81548161ffff021916908361ffff16021790555050565b80600460080160008461ffff1661ffff16815260200190815260200160002090805190602001906105649291906105c5565b505050565b6000809054906101000a900473ffffffffffffffffffffffffffffffffffffffff1681565b80600460090160008461ffff1661ffff16815260200190815260200160002090805190602001906105c09291906105c5565b505050565b828054600181600116156101000203166002900490600052602060002090601f016020900481019282601f1061060657805160ff1916838001178555610634565b82800160010185558215610634579182015b82811115610633578251825591602001919060010190610618565b5b5090506106419190610645565b5090565b61066791905b8082111561066357600081600090555060010161064b565b5090565b90565b600082601f83011261067b57600080fd5b813561068e61068982610b87565b610b5a565b915080825260208301602083018583830111156106aa57600080fd5b6106b5838284610c4b565b50505092915050565b600082601f8301126106cf57600080fd5b81356106e26106dd82610bb3565b610b5a565b915080825260208301602083018583830111156106fe57600080fd5b610709838284610c4b565b50505092915050565b6000610100828403121561072557600080fd5b610730610100610b5a565b9050600082013567ffffffffffffffff81111561074c57600080fd5b6107588482850161066a565b600083015250602082013567ffffffffffffffff81111561077857600080fd5b6107848482850161066a565b602083015250604082013567ffffffffffffffff8111156107a457600080fd5b6107b08482850161066a565b604083015250606082013567ffffffffffffffff8111156107d057600080fd5b6107dc8482850161066a565b606083015250608082013567ffffffffffffffff8111156107fc57600080fd5b6108088482850161066a565b60808301525060a082013567ffffffffffffffff81111561082857600080fd5b6108348482850161066a565b60a08301525060c082013567ffffffffffffffff81111561085457600080fd5b6108608482850161066a565b60c08301525060e082013567ffffffffffffffff81111561088057600080fd5b61088c8482850161066a565b60e08301525092915050565b6000813590506108a781610c8d565b92915050565b6000815190506108bc81610c8d565b92915050565b600080604083850312156108d557600080fd5b600083013567ffffffffffffffff8111156108ef57600080fd5b6108fb858286016106be565b925050602083013567ffffffffffffffff81111561091857600080fd5b610924858286016106be565b9150509250929050565b60008060006060848603121561094357600080fd5b600084013567ffffffffffffffff81111561095d57600080fd5b610969868287016106be565b935050602084013567ffffffffffffffff81111561098657600080fd5b610992868287016106be565b92505060406109a386828701610898565b9150509250925092565b6000602082840312156109bf57600080fd5b600082013567ffffffffffffffff8111156109d957600080fd5b6109e584828501610712565b91505092915050565b600060208284031215610a0057600080fd5b6000610a0e84828501610898565b91505092915050565b600060208284031215610a2957600080fd5b6000610a37848285016108ad565b91505092915050565b60008060408385031215610a5357600080fd5b6000610a6185828601610898565b925050602083013567ffffffffffffffff811115610a7e57600080fd5b610a8a858286016106be565b9150509250929050565b610a9d81610bf5565b82525050565b610aac81610c07565b82525050565b6000610abd82610bdf565b610ac78185610bea565b9350610ad7818560208601610c5a565b80840191505092915050565b610aec81610c41565b82525050565b6000610afe8284610ab2565b915081905092915050565b6000602082019050610b1e6000830184610a94565b92915050565b6000602082019050610b396000830184610aa3565b92915050565b6000602082019050610b546000830184610ae3565b92915050565b6000604051905081810181811067ffffffffffffffff82111715610b7d57600080fd5b8060405250919050565b600067ffffffffffffffff821115610b9e57600080fd5b601f19601f8301169050602081019050919050565b600067ffffffffffffffff821115610bca57600080fd5b601f19601f8301169050602081019050919050565b600081519050919050565b600081905092915050565b6000610c0082610c21565b9050919050565b60008115159050919050565b600061ffff82169050919050565b600073ffffffffffffffffffffffffffffffffffffffff82169050919050565b6000819050919050565b82818337600083830152505050565b60005b83811015610c78578082015181840152602081019050610c5d565b83811115610c87576000848401525b50505050565b610c9681610c13565b8114610ca157600080fd5b5056fea365627a7a723158202405a318f0614b364e62c5a6776de9b1f2a71f3caa75ca9fc952937ca71978506c6578706572696d656e74616cf564736f6c63430005100040",
  "source": "pragma solidity ^0.5.16;\r\npragma experimental ABIEncoderV2;\r\n\r\ncontract DateTime {\r\n  function getYear(uint timestamp) public view returns (uint16);\r\n  function getMonth(uint timestamp) public view returns (uint8);\r\n  function getDay(uint timestamp) public view returns (uint8);\r\n}\r\n\r\ncontract Employee {\r\n  address public dateTimeAddr = 0x8Fc065565E3e44aef229F1D06aac009D6A524e82;\r\n  DateTime dateTime = DateTime(dateTimeAddr);\r\n\r\n  mapping (string => address) UserToOwner;\r\n  mapping (string => Resume) UserToResume;\r\n\r\n  struct Resume {\r\n    PersonalInfo personalInfo;\r\n    mapping (uint16 => string) employmentHistory;\r\n    mapping (uint16 => string) academicHistory;\r\n    uint16 expectedSalary;\r\n  }\r\n\r\n  struct PersonalInfo {\r\n    string userId;\r\n    string name1;\r\n    string name2;\r\n    string homeAddress;\r\n    string contactNumber;\r\n    string email;\r\n    string nationality;\r\n    string residentStatus;\r\n  }\r\n\r\n  Resume newResume;\r\n\r\n  function _fillPersonalInfo(PersonalInfo memory _personalInfo) public {\r\n    newResume.personalInfo.name1 = _personalInfo.name1;\r\n    newResume.personalInfo.name2 = _personalInfo.name2;\r\n    newResume.personalInfo.homeAddress = _personalInfo.homeAddress;\r\n    newResume.personalInfo.contactNumber = _personalInfo.contactNumber;\r\n    newResume.personalInfo.email = _personalInfo.email;\r\n    newResume.personalInfo.userId = _personalInfo.email;\r\n    newResume.personalInfo.nationality = _personalInfo.nationality;\r\n    newResume.personalInfo.residentStatus = _personalInfo.residentStatus;\r\n  }\r\n\r\n  function _fillEmploymentHistory(uint16 _startYear, string memory _employer) public {\r\n    newResume.employmentHistory[_startYear] = _employer;\r\n  }\r\n\r\n  function _fillAcademicHistory(uint16 _startYear, string memory _academic) public {\r\n    newResume.academicHistory[_startYear] = _academic;\r\n  }\r\n\r\n  function _setExpectedSalary(uint16 _expectedSalary) public {\r\n    newResume.expectedSalary = _expectedSalary;\r\n  }\r\n\r\n  function _createResume(Resume memory _resume) internal {\r\n    UserToResume[_resume.personalInfo.userId] = _resume;\r\n    UserToOwner[_resume.personalInfo.userId] = msg.sender;\r\n  }\r\n\r\n  function _updateHomeAddress(string memory _userId, string memory _newHomeAddress) public {\r\n    require(msg.sender == UserToOwner[_userId]);\r\n    Resume storage myResume = UserToResume[_userId];\r\n    myResume.personalInfo.homeAddress = _newHomeAddress;\r\n  }\r\n\r\n  function _updateContactNumber(string memory _userId, string memory _newContactNumber) public {\r\n    require(msg.sender == UserToOwner[_userId]);\r\n    Resume storage myResume = UserToResume[_userId];\r\n    myResume.personalInfo.contactNumber = _newContactNumber;\r\n  }\r\n\r\n  function _jobOffer(string memory _userId, string memory _employer, uint16 _monthlyAllowance) public returns(bool){\r\n    Resume storage offerResume = UserToResume[_userId];\r\n\r\n    if (offerResume.expectedSalary <= _monthlyAllowance) {\r\n      _fillEmploymentHistory(dateTime.getYear(now), _employer);\r\n      return true;\r\n    } else {\r\n      return false;\r\n    }\r\n  }\r\n}\r\n",
  "sourcePath": "C:\\cygwin64\\home\\Lucas Khor\\my-resume-new\\contracts\\Job.sol",
  "compiler": {
    "name": "solc",
    "version": "0.5.16+commit.9c3226ce.Emscripten.clang"
  },
  "schemaVersion": "3.4.1",
  "updatedAt": "2021-05-27T09:44:20.553Z",
  "devdoc": {
    "methods": {}
  },
  "userdoc": {
    "methods": {}
  }
}