{
  "contractName": "EmployeeDetails",
  "abi": [
    {
      "constant": false,
      "inputs": [
        {
          "internalType": "uint16",
          "name": "_startYear",
          "type": "uint16"
        },
        {
          "internalType": "string",
          "name": "_academic",
          "type": "string"
        }
      ],
      "name": "_fillAcademicHistory",
      "outputs": [],
      "payable": false,
      "stateMutability": "nonpayable",
      "type": "function"
    },
    {
      "constant": false,
      "inputs": [
        {
          "internalType": "uint16",
          "name": "_startYear",
          "type": "uint16"
        },
        {
          "internalType": "string",
          "name": "_employer",
          "type": "string"
        }
      ],
      "name": "_fillEmploymentHistory",
      "outputs": [],
      "payable": false,
      "stateMutability": "nonpayable",
      "type": "function"
    },
    {
      "constant": false,
      "inputs": [
        {
          "components": [
            {
              "internalType": "string",
              "name": "userId",
              "type": "string"
            },
            {
              "internalType": "string",
              "name": "name1",
              "type": "string"
            },
            {
              "internalType": "string",
              "name": "name2",
              "type": "string"
            },
            {
              "internalType": "string",
              "name": "homeAddress",
              "type": "string"
            },
            {
              "internalType": "string",
              "name": "contactNumber",
              "type": "string"
            },
            {
              "internalType": "string",
              "name": "email",
              "type": "string"
            },
            {
              "internalType": "string",
              "name": "nationality",
              "type": "string"
            },
            {
              "internalType": "string",
              "name": "residentStatus",
              "type": "string"
            }
          ],
          "internalType": "struct Employee.PersonalInfo",
          "name": "_personalInfo",
          "type": "tuple"
        }
      ],
      "name": "_fillPersonalInfo",
      "outputs": [],
      "payable": false,
      "stateMutability": "nonpayable",
      "type": "function"
    },
    {
      "constant": false,
      "inputs": [
        {
          "internalType": "string",
          "name": "_userId",
          "type": "string"
        },
        {
          "internalType": "string",
          "name": "_employer",
          "type": "string"
        },
        {
          "internalType": "uint16",
          "name": "_monthlyAllowance",
          "type": "uint16"
        }
      ],
      "name": "_jobOffer",
      "outputs": [
        {
          "internalType": "bool",
          "name": "",
          "type": "bool"
        }
      ],
      "payable": false,
      "stateMutability": "nonpayable",
      "type": "function"
    },
    {
      "constant": false,
      "inputs": [
        {
          "internalType": "uint16",
          "name": "_expectedSalary",
          "type": "uint16"
        }
      ],
      "name": "_setExpectedSalary",
      "outputs": [],
      "payable": false,
      "stateMutability": "nonpayable",
      "type": "function"
    },
    {
      "constant": false,
      "inputs": [
        {
          "internalType": "string",
          "name": "_userId",
          "type": "string"
        },
        {
          "internalType": "string",
          "name": "_newContactNumber",
          "type": "string"
        }
      ],
      "name": "_updateContactNumber",
      "outputs": [],
      "payable": false,
      "stateMutability": "nonpayable",
      "type": "function"
    },
    {
      "constant": false,
      "inputs": [
        {
          "internalType": "string",
          "name": "_userId",
          "type": "string"
        },
        {
          "internalType": "string",
          "name": "_newHomeAddress",
          "type": "string"
        }
      ],
      "name": "_updateHomeAddress",
      "outputs": [],
      "payable": false,
      "stateMutability": "nonpayable",
      "type": "function"
    },
    {
      "constant": true,
      "inputs": [],
      "name": "dateTimeAddr",
      "outputs": [
        {
          "internalType": "address",
          "name": "",
          "type": "address"
        }
      ],
      "payable": false,
      "stateMutability": "view",
      "type": "function"
    },
    {
      "constant": false,
      "inputs": [],
      "name": "_fillResume",
      "outputs": [],
      "payable": false,
      "stateMutability": "nonpayable",
      "type": "function"
    }
  ],
  "bytecode": "0x6080604052738fc065565e3e44aef229f1d06aac009d6a524e826000806101000a81548173ffffffffffffffffffffffffffffffffffffffff021916908373ffffffffffffffffffffffffffffffffffffffff1602179055506000809054906101000a900473ffffffffffffffffffffffffffffffffffffffff16600160006101000a81548173ffffffffffffffffffffffffffffffffffffffff021916908373ffffffffffffffffffffffffffffffffffffffff1602179055503480156100c657600080fd5b506117db806100d66000396000f3fe608060405234801561001057600080fd5b50600436106100935760003560e01c806359cf175e1161006657806359cf175e1461011c57806368eba68e146101385780637352d08414610142578063d2c5ce311461015e578063fe9c64ad1461017c57610093565b8063214d0539146100985780632a03babe146100b45780634d388e61146100e45780635304e8c214610100575b600080fd5b6100b260048036036100ad91908101906112fe565b610198565b005b6100ce60048036036100c9919081019061136a565b610251565b6040516100db91906115a8565b60405180910390f35b6100fe60048036036100f991908101906112fe565b610360565b005b61011a600480360361011591908101906113e9565b610419565b005b6101366004803603610131919081019061142a565b610524565b005b610140610547565b005b61015c6004803603610157919081019061147c565b610d01565b005b610166610d38565b604051610173919061158d565b60405180910390f35b6101966004803603610191919081019061147c565b610d5d565b005b6002826040516101a89190611576565b908152602001604051809103902060009054906101000a900473ffffffffffffffffffffffffffffffffffffffff1673ffffffffffffffffffffffffffffffffffffffff163373ffffffffffffffffffffffffffffffffffffffff161461020e57600080fd5b60006003836040516102209190611576565b908152602001604051809103902090508181600001600401908051906020019061024b929190610f3c565b50505050565b6000806003856040516102649190611576565b908152602001604051809103902090508261ffff1681600a0160009054906101000a900461ffff1661ffff161161035357610349600160009054906101000a900473ffffffffffffffffffffffffffffffffffffffff1673ffffffffffffffffffffffffffffffffffffffff166392d66313426040518263ffffffff1660e01b81526004016102f391906115c3565b60206040518083038186803b15801561030b57600080fd5b505afa15801561031f573d6000803e3d6000fd5b505050506040513d601f19601f820116820180604052506103439190810190611453565b85610d01565b6001915050610359565b60009150505b9392505050565b6002826040516103709190611576565b908152602001604051809103902060009054906101000a900473ffffffffffffffffffffffffffffffffffffffff1673ffffffffffffffffffffffffffffffffffffffff163373ffffffffffffffffffffffffffffffffffffffff16146103d657600080fd5b60006003836040516103e89190611576565b9081526020016040518091039020905081816000016003019080519060200190610413929190610f3c565b50505050565b806020015160046000016001019080519060200190610439929190610f3c565b5080604001516004600001600201908051906020019061045a929190610f3c565b5080606001516004600001600301908051906020019061047b929190610f3c565b5080608001516004600001600401908051906020019061049c929190610f3c565b508060a00151600460000160050190805190602001906104bd929190610f3c565b508060a00151600460000160000190805190602001906104de929190610f3c565b508060c00151600460000160060190805190602001906104ff929190610f3c565b508060e0015160046000016007019080519060200190610520929190610f3c565b5050565b806004600a0160006101000a81548161ffff021916908361ffff16021790555050565b61054f610fbc565b6040518060400160405280600f81526020017f4b686f72204368656520486f6f6e67000000000000000000000000000000000081525081602001819052506040518060400160405280600581526020017f4c7563617300000000000000000000000000000000000000000000000000000081525081604001819052506040518060600160405280602881526020016117346028913981606001819052506040518060400160405280600b81526020017f36352d393636353736333300000000000000000000000000000000000000000081525081608001819052506040518060400160405280601281526020017f63686b686f72383640676d61696c2e636f6d00000000000000000000000000008152508160a001819052506040518060400160405280600981526020017f4d616c61797369616e00000000000000000000000000000000000000000000008152508160c001819052506040518060400160405280600381526020017f53505200000000000000000000000000000000000000000000000000000000008152508160e001819052506106ed81610419565b61072e6107dc6040518060400160405280600b81526020017f536f6c6465726669656c64000000000000000000000000000000000000000000815250610d01565b61076f6107d96040518060400160405280600a81526020017f53696c7665726c616b6500000000000000000000000000000000000000000000815250610d01565b6107936107d66040518060600160405280603d815260200161175c603d9139610d5d565b61079e611770610524565b600060049050610cfd816040518060400160405290816000820160405180610100016040529081600082018054600181600116156101000203166002900480601f01602080910402602001604051908101604052809291908181526020018280546001816001161561010002031660029004801561085d5780601f106108325761010080835404028352916020019161085d565b820191906000526020600020905b81548152906001019060200180831161084057829003601f168201915b50505050508152602001600182018054600181600116156101000203166002900480601f0160208091040260200160405190810160405280929190818152602001828054600181600116156101000203166002900480156108ff5780601f106108d4576101008083540402835291602001916108ff565b820191906000526020600020905b8154815290600101906020018083116108e257829003601f168201915b50505050508152602001600282018054600181600116156101000203166002900480601f0160208091040260200160405190810160405280929190818152602001828054600181600116156101000203166002900480156109a15780601f10610976576101008083540402835291602001916109a1565b820191906000526020600020905b81548152906001019060200180831161098457829003601f168201915b50505050508152602001600382018054600181600116156101000203166002900480601f016020809104026020016040519081016040528092919081815260200182805460018160011615610100020316600290048015610a435780601f10610a1857610100808354040283529160200191610a43565b820191906000526020600020905b815481529060010190602001808311610a2657829003601f168201915b50505050508152602001600482018054600181600116156101000203166002900480601f016020809104026020016040519081016040528092919081815260200182805460018160011615610100020316600290048015610ae55780601f10610aba57610100808354040283529160200191610ae5565b820191906000526020600020905b815481529060010190602001808311610ac857829003601f168201915b50505050508152602001600582018054600181600116156101000203166002900480601f016020809104026020016040519081016040528092919081815260200182805460018160011615610100020316600290048015610b875780601f10610b5c57610100808354040283529160200191610b87565b820191906000526020600020905b815481529060010190602001808311610b6a57829003601f168201915b50505050508152602001600682018054600181600116156101000203166002900480601f016020809104026020016040519081016040528092919081815260200182805460018160011615610100020316600290048015610c295780601f10610bfe57610100808354040283529160200191610c29565b820191906000526020600020905b815481529060010190602001808311610c0c57829003601f168201915b50505050508152602001600782018054600181600116156101000203166002900480601f016020809104026020016040519081016040528092919081815260200182805460018160011615610100020316600290048015610ccb5780601f10610ca057610100808354040283529160200191610ccb565b820191906000526020600020905b815481529060010190602001808311610cae57829003601f168201915b5050505050815250508152602001600a820160009054906101000a900461ffff1661ffff1661ffff1681525050610d94565b5050565b80600460080160008461ffff1661ffff1681526020019081526020016000209080519060200190610d33929190610f3c565b505050565b6000809054906101000a900473ffffffffffffffffffffffffffffffffffffffff1681565b80600460090160008461ffff1661ffff1681526020019081526020016000209080519060200190610d8f929190610f3c565b505050565b806003826000015160000151604051610dad919061155f565b90815260200160405180910390206000820151816000016000820151816000019080519060200190610de0929190611001565b506020820151816001019080519060200190610dfd929190611001565b506040820151816002019080519060200190610e1a929190611001565b506060820151816003019080519060200190610e37929190611001565b506080820151816004019080519060200190610e54929190611001565b5060a0820151816005019080519060200190610e71929190611001565b5060c0820151816006019080519060200190610e8e929190611001565b5060e0820151816007019080519060200190610eab929190611001565b505050602082015181600a0160006101000a81548161ffff021916908361ffff160217905550905050336002826000015160000151604051610eed919061155f565b908152602001604051809103902060006101000a81548173ffffffffffffffffffffffffffffffffffffffff021916908373ffffffffffffffffffffffffffffffffffffffff16021790555050565b828054600181600116156101000203166002900490600052602060002090601f016020900481019282601f10610f7d57805160ff1916838001178555610fab565b82800160010185558215610fab579182015b82811115610faa578251825591602001919060010190610f8f565b5b509050610fb89190611081565b5090565b60405180610100016040528060608152602001606081526020016060815260200160608152602001606081526020016060815260200160608152602001606081525090565b828054600181600116156101000203166002900490600052602060002090601f016020900481019282601f1061104257805160ff1916838001178555611070565b82800160010185558215611070579182015b8281111561106f578251825591602001919060010190611054565b5b50905061107d9190611081565b5090565b6110a391905b8082111561109f576000816000905550600101611087565b5090565b90565b600082601f8301126110b757600080fd5b81356110ca6110c58261160b565b6115de565b915080825260208301602083018583830111156110e657600080fd5b6110f18382846116da565b50505092915050565b600082601f83011261110b57600080fd5b813561111e61111982611637565b6115de565b9150808252602083016020830185838301111561113a57600080fd5b6111458382846116da565b50505092915050565b6000610100828403121561116157600080fd5b61116c6101006115de565b9050600082013567ffffffffffffffff81111561118857600080fd5b611194848285016110a6565b600083015250602082013567ffffffffffffffff8111156111b457600080fd5b6111c0848285016110a6565b602083015250604082013567ffffffffffffffff8111156111e057600080fd5b6111ec848285016110a6565b604083015250606082013567ffffffffffffffff81111561120c57600080fd5b611218848285016110a6565b606083015250608082013567ffffffffffffffff81111561123857600080fd5b611244848285016110a6565b60808301525060a082013567ffffffffffffffff81111561126457600080fd5b611270848285016110a6565b60a08301525060c082013567ffffffffffffffff81111561129057600080fd5b61129c848285016110a6565b60c08301525060e082013567ffffffffffffffff8111156112bc57600080fd5b6112c8848285016110a6565b60e08301525092915050565b6000813590506112e38161171c565b92915050565b6000815190506112f88161171c565b92915050565b6000806040838503121561131157600080fd5b600083013567ffffffffffffffff81111561132b57600080fd5b611337858286016110fa565b925050602083013567ffffffffffffffff81111561135457600080fd5b611360858286016110fa565b9150509250929050565b60008060006060848603121561137f57600080fd5b600084013567ffffffffffffffff81111561139957600080fd5b6113a5868287016110fa565b935050602084013567ffffffffffffffff8111156113c257600080fd5b6113ce868287016110fa565b92505060406113df868287016112d4565b9150509250925092565b6000602082840312156113fb57600080fd5b600082013567ffffffffffffffff81111561141557600080fd5b6114218482850161114e565b91505092915050565b60006020828403121561143c57600080fd5b600061144a848285016112d4565b91505092915050565b60006020828403121561146557600080fd5b6000611473848285016112e9565b91505092915050565b6000806040838503121561148f57600080fd5b600061149d858286016112d4565b925050602083013567ffffffffffffffff8111156114ba57600080fd5b6114c6858286016110fa565b9150509250929050565b6114d981611684565b82525050565b6114e881611696565b82525050565b60006114f98261166e565b6115038185611679565b93506115138185602086016116e9565b80840191505092915050565b600061152a82611663565b6115348185611679565b93506115448185602086016116e9565b80840191505092915050565b611559816116d0565b82525050565b600061156b828461151f565b915081905092915050565b600061158282846114ee565b915081905092915050565b60006020820190506115a260008301846114d0565b92915050565b60006020820190506115bd60008301846114df565b92915050565b60006020820190506115d86000830184611550565b92915050565b6000604051905081810181811067ffffffffffffffff8211171561160157600080fd5b8060405250919050565b600067ffffffffffffffff82111561162257600080fd5b601f19601f8301169050602081019050919050565b600067ffffffffffffffff82111561164e57600080fd5b601f19601f8301169050602081019050919050565b600081519050919050565b600081519050919050565b600081905092915050565b600061168f826116b0565b9050919050565b60008115159050919050565b600061ffff82169050919050565b600073ffffffffffffffffffffffffffffffffffffffff82169050919050565b6000819050919050565b82818337600083830152505050565b60005b838110156117075780820151818401526020810190506116ec565b83811115611716576000848401525b50505050565b611725816116a2565b811461173057600080fd5b5056fe33352c4d616e64616c617920526f61642c2330372d33372c3330383231352c53696e6761706f7265544152432f43616d7062656c6c20556e69766572736974792c2042616368656c6f722044656772656520696e20436f6d707574657220536369656e6365a365627a7a72315820fb3045be80d8aad9e05ddf2caf7cad9c3cc63455d962e9bf0a0877ccff8658f06c6578706572696d656e74616cf564736f6c63430005100040",
  "source": "pragma solidity ^0.5.16;\r\npragma experimental ABIEncoderV2;\r\n\r\nimport \"./Job.sol\";\r\n\r\ncontract EmployeeDetails is Employee {\r\n\r\n  function _fillResume() public {\r\n    PersonalInfo memory myPersonalInfo;\r\n    myPersonalInfo.name1 = \"Khor Chee Hoong\";\r\n    myPersonalInfo.name2 = \"Lucas\";\r\n    myPersonalInfo.homeAddress = \"35,Mandalay Road,#07-37,308215,Singapore\";\r\n    myPersonalInfo.contactNumber = \"65-96657633\";\r\n    myPersonalInfo.email = \"chkhor86@gmail.com\";\r\n    myPersonalInfo.nationality = \"Malaysian\";\r\n    myPersonalInfo.residentStatus = \"SPR\";\r\n\r\n    _fillPersonalInfo(myPersonalInfo);\r\n    _fillEmploymentHistory(2012,\"Solderfield\");\r\n    _fillEmploymentHistory(2009,\"Silverlake\");\r\n    _fillAcademicHistory(2006,\"TARC/Campbell University, Bachelor Degree in Computer Science\");\r\n    _setExpectedSalary(6000);\r\n\r\n    Resume storage myResume = newResume;\r\n    _createResume(myResume);\r\n  }\r\n}\r\n",
  "sourcePath": "C:/cygwin64/home/Lucas Khor/my-resume-new/contracts/ResumeDetails.sol",
  "compiler": {
    "name": "solc",
    "version": "0.5.16+commit.9c3226ce.Emscripten.clang"
  },
  "schemaVersion": "3.4.1",
  "updatedAt": "2021-05-27T09:44:20.560Z",
  "devdoc": {
    "methods": {}
  },
  "userdoc": {
    "methods": {}
  }
}