{
  "contractName": "Offer",
  "abi": [
    {
      "constant": false,
      "inputs": [
        {
          "internalType": "uint16",
          "name": "_startYear",
          "type": "uint16"
        },
        {
          "internalType": "string",
          "name": "_academic",
          "type": "string"
        }
      ],
      "name": "_fillAcademicHistory",
      "outputs": [],
      "payable": false,
      "stateMutability": "nonpayable",
      "type": "function"
    },
    {
      "constant": false,
      "inputs": [
        {
          "internalType": "uint16",
          "name": "_startYear",
          "type": "uint16"
        },
        {
          "internalType": "string",
          "name": "_employer",
          "type": "string"
        }
      ],
      "name": "_fillEmploymentHistory",
      "outputs": [],
      "payable": false,
      "stateMutability": "nonpayable",
      "type": "function"
    },
    {
      "constant": false,
      "inputs": [
        {
          "components": [
            {
              "internalType": "string",
              "name": "userId",
              "type": "string"
            },
            {
              "internalType": "string",
              "name": "name1",
              "type": "string"
            },
            {
              "internalType": "string",
              "name": "name2",
              "type": "string"
            },
            {
              "internalType": "string",
              "name": "homeAddress",
              "type": "string"
            },
            {
              "internalType": "string",
              "name": "contactNumber",
              "type": "string"
            },
            {
              "internalType": "string",
              "name": "email",
              "type": "string"
            },
            {
              "internalType": "string",
              "name": "nationality",
              "type": "string"
            },
            {
              "internalType": "string",
              "name": "residentStatus",
              "type": "string"
            }
          ],
          "internalType": "struct Employee.PersonalInfo",
          "name": "_personalInfo",
          "type": "tuple"
        }
      ],
      "name": "_fillPersonalInfo",
      "outputs": [],
      "payable": false,
      "stateMutability": "nonpayable",
      "type": "function"
    },
    {
      "constant": false,
      "inputs": [
        {
          "internalType": "string",
          "name": "_userId",
          "type": "string"
        },
        {
          "internalType": "string",
          "name": "_employer",
          "type": "string"
        },
        {
          "internalType": "uint16",
          "name": "_monthlyAllowance",
          "type": "uint16"
        }
      ],
      "name": "_jobOffer",
      "outputs": [
        {
          "internalType": "bool",
          "name": "",
          "type": "bool"
        }
      ],
      "payable": false,
      "stateMutability": "nonpayable",
      "type": "function"
    },
    {
      "constant": false,
      "inputs": [
        {
          "internalType": "uint16",
          "name": "_expectedSalary",
          "type": "uint16"
        }
      ],
      "name": "_setExpectedSalary",
      "outputs": [],
      "payable": false,
      "stateMutability": "nonpayable",
      "type": "function"
    },
    {
      "constant": false,
      "inputs": [
        {
          "internalType": "string",
          "name": "_userId",
          "type": "string"
        },
        {
          "internalType": "string",
          "name": "_newContactNumber",
          "type": "string"
        }
      ],
      "name": "_updateContactNumber",
      "outputs": [],
      "payable": false,
      "stateMutability": "nonpayable",
      "type": "function"
    },
    {
      "constant": false,
      "inputs": [
        {
          "internalType": "string",
          "name": "_userId",
          "type": "string"
        },
        {
          "internalType": "string",
          "name": "_newHomeAddress",
          "type": "string"
        }
      ],
      "name": "_updateHomeAddress",
      "outputs": [],
      "payable": false,
      "stateMutability": "nonpayable",
      "type": "function"
    },
    {
      "constant": true,
      "inputs": [],
      "name": "dateTimeAddr",
      "outputs": [
        {
          "internalType": "address",
          "name": "",
          "type": "address"
        }
      ],
      "payable": false,
      "stateMutability": "view",
      "type": "function"
    },
    {
      "constant": false,
      "inputs": [],
      "name": "_makeJobOffer",
      "outputs": [],
      "payable": false,
      "stateMutability": "nonpayable",
      "type": "function"
    }
  ],
  "bytecode": "0x6080604052738fc065565e3e44aef229f1d06aac009d6a524e826000806101000a81548173ffffffffffffffffffffffffffffffffffffffff021916908373ffffffffffffffffffffffffffffffffffffffff1602179055506000809054906101000a900473ffffffffffffffffffffffffffffffffffffffff16600160006101000a81548173ffffffffffffffffffffffffffffffffffffffff021916908373ffffffffffffffffffffffffffffffffffffffff1602179055503480156100c657600080fd5b50610d76806100d66000396000f3fe608060405234801561001057600080fd5b50600436106100935760003560e01c806359cf175e1161006657806359cf175e1461011c5780637352d08414610138578063d2c5ce3114610154578063fdc7356714610172578063fe9c64ad1461017c57610093565b8063214d0539146100985780632a03babe146100b45780634d388e61146100e45780635304e8c214610100575b600080fd5b6100b260048036036100ad9190810190610951565b610198565b005b6100ce60048036036100c991908101906109bd565b610251565b6040516100db9190610bb3565b60405180910390f35b6100fe60048036036100f99190810190610951565b610360565b005b61011a60048036036101159190810190610a3c565b610419565b005b61013660048036036101319190810190610a7d565b610524565b005b610152600480360361014d9190810190610acf565b610547565b005b61015c61057e565b6040516101699190610b98565b60405180910390f35b61017a6105a3565b005b61019660048036036101919190810190610acf565b61061d565b005b6002826040516101a89190610b81565b908152602001604051809103902060009054906101000a900473ffffffffffffffffffffffffffffffffffffffff1673ffffffffffffffffffffffffffffffffffffffff163373ffffffffffffffffffffffffffffffffffffffff161461020e57600080fd5b60006003836040516102209190610b81565b908152602001604051809103902090508181600001600401908051906020019061024b929190610654565b50505050565b6000806003856040516102649190610b81565b908152602001604051809103902090508261ffff1681600a0160009054906101000a900461ffff1661ffff161161035357610349600160009054906101000a900473ffffffffffffffffffffffffffffffffffffffff1673ffffffffffffffffffffffffffffffffffffffff166392d66313426040518263ffffffff1660e01b81526004016102f39190610bce565b60206040518083038186803b15801561030b57600080fd5b505afa15801561031f573d6000803e3d6000fd5b505050506040513d601f19601f820116820180604052506103439190810190610aa6565b85610547565b6001915050610359565b60009150505b9392505050565b6002826040516103709190610b81565b908152602001604051809103902060009054906101000a900473ffffffffffffffffffffffffffffffffffffffff1673ffffffffffffffffffffffffffffffffffffffff163373ffffffffffffffffffffffffffffffffffffffff16146103d657600080fd5b60006003836040516103e89190610b81565b9081526020016040518091039020905081816000016003019080519060200190610413929190610654565b50505050565b806020015160046000016001019080519060200190610439929190610654565b5080604001516004600001600201908051906020019061045a929190610654565b5080606001516004600001600301908051906020019061047b929190610654565b5080608001516004600001600401908051906020019061049c929190610654565b508060a00151600460000160050190805190602001906104bd929190610654565b508060a00151600460000160000190805190602001906104de929190610654565b508060c00151600460000160060190805190602001906104ff929190610654565b508060e0015160046000016007019080519060200190610520929190610654565b5050565b806004600a0160006101000a81548161ffff021916908361ffff16021790555050565b80600460080160008461ffff1661ffff1681526020019081526020016000209080519060200190610579929190610654565b505050565b6000809054906101000a900473ffffffffffffffffffffffffffffffffffffffff1681565b61061a6040518060400160405280601281526020017f63686b686f72383640676d61696c2e636f6d00000000000000000000000000008152506040518060400160405280600b81526020017f41424320436f6d70616e79000000000000000000000000000000000000000000815250611964610251565b50565b80600460090160008461ffff1661ffff168152602001908152602001600020908051906020019061064f929190610654565b505050565b828054600181600116156101000203166002900490600052602060002090601f016020900481019282601f1061069557805160ff19168380011785556106c3565b828001600101855582156106c3579182015b828111156106c25782518255916020019190600101906106a7565b5b5090506106d091906106d4565b5090565b6106f691905b808211156106f25760008160009055506001016106da565b5090565b90565b600082601f83011261070a57600080fd5b813561071d61071882610c16565b610be9565b9150808252602083016020830185838301111561073957600080fd5b610744838284610cda565b50505092915050565b600082601f83011261075e57600080fd5b813561077161076c82610c42565b610be9565b9150808252602083016020830185838301111561078d57600080fd5b610798838284610cda565b50505092915050565b600061010082840312156107b457600080fd5b6107bf610100610be9565b9050600082013567ffffffffffffffff8111156107db57600080fd5b6107e7848285016106f9565b600083015250602082013567ffffffffffffffff81111561080757600080fd5b610813848285016106f9565b602083015250604082013567ffffffffffffffff81111561083357600080fd5b61083f848285016106f9565b604083015250606082013567ffffffffffffffff81111561085f57600080fd5b61086b848285016106f9565b606083015250608082013567ffffffffffffffff81111561088b57600080fd5b610897848285016106f9565b60808301525060a082013567ffffffffffffffff8111156108b757600080fd5b6108c3848285016106f9565b60a08301525060c082013567ffffffffffffffff8111156108e357600080fd5b6108ef848285016106f9565b60c08301525060e082013567ffffffffffffffff81111561090f57600080fd5b61091b848285016106f9565b60e08301525092915050565b60008135905061093681610d1c565b92915050565b60008151905061094b81610d1c565b92915050565b6000806040838503121561096457600080fd5b600083013567ffffffffffffffff81111561097e57600080fd5b61098a8582860161074d565b925050602083013567ffffffffffffffff8111156109a757600080fd5b6109b38582860161074d565b9150509250929050565b6000806000606084860312156109d257600080fd5b600084013567ffffffffffffffff8111156109ec57600080fd5b6109f88682870161074d565b935050602084013567ffffffffffffffff811115610a1557600080fd5b610a218682870161074d565b9250506040610a3286828701610927565b9150509250925092565b600060208284031215610a4e57600080fd5b600082013567ffffffffffffffff811115610a6857600080fd5b610a74848285016107a1565b91505092915050565b600060208284031215610a8f57600080fd5b6000610a9d84828501610927565b91505092915050565b600060208284031215610ab857600080fd5b6000610ac68482850161093c565b91505092915050565b60008060408385031215610ae257600080fd5b6000610af085828601610927565b925050602083013567ffffffffffffffff811115610b0d57600080fd5b610b198582860161074d565b9150509250929050565b610b2c81610c84565b82525050565b610b3b81610c96565b82525050565b6000610b4c82610c6e565b610b568185610c79565b9350610b66818560208601610ce9565b80840191505092915050565b610b7b81610cd0565b82525050565b6000610b8d8284610b41565b915081905092915050565b6000602082019050610bad6000830184610b23565b92915050565b6000602082019050610bc86000830184610b32565b92915050565b6000602082019050610be36000830184610b72565b92915050565b6000604051905081810181811067ffffffffffffffff82111715610c0c57600080fd5b8060405250919050565b600067ffffffffffffffff821115610c2d57600080fd5b601f19601f8301169050602081019050919050565b600067ffffffffffffffff821115610c5957600080fd5b601f19601f8301169050602081019050919050565b600081519050919050565b600081905092915050565b6000610c8f82610cb0565b9050919050565b60008115159050919050565b600061ffff82169050919050565b600073ffffffffffffffffffffffffffffffffffffffff82169050919050565b6000819050919050565b82818337600083830152505050565b60005b83811015610d07578082015181840152602081019050610cec565b83811115610d16576000848401525b50505050565b610d2581610ca2565b8114610d3057600080fd5b5056fea365627a7a723158206130d21cc393c3f607cdd2d3a63c4d080318667f99a6c789b4806952a67f62b86c6578706572696d656e74616cf564736f6c63430005100040",
  "source": "pragma solidity ^0.5.16;\r\npragma experimental ABIEncoderV2;\r\n\r\nimport \"./Job.sol\";\r\n\r\ncontract Offer is Employee {\r\n  function _makeJobOffer() public{\r\n      _jobOffer(\"chkhor86@gmail.com\", \"ABC Company\", 6500);\r\n  }\r\n}\r\n",
  "sourcePath": "C:/cygwin64/home/Lucas Khor/my-resume-new/contracts/Offer.sol",
  "compiler": {
    "name": "solc",
    "version": "0.5.16+commit.9c3226ce.Emscripten.clang"
  },
  "schemaVersion": "3.4.1",
  "updatedAt": "2021-05-27T09:44:20.558Z",
  "devdoc": {
    "methods": {}
  },
  "userdoc": {
    "methods": {}
  }
}